{
  "transactions": [
    {
      "hash": "0xe46761ddf4d2d4bff0c896d1acdc72d6364f653982b2770b55c404e1b2973a71",
      "transactionType": "CREATE",
      "contractName": "PasswordStore",
      "contractAddress": "0x5FbDB2315678afecb367f032d93F642f64180aa3",
      "function": null,
      "arguments": null,
      "transaction": {
        "type": "0x02",
        "from": "0xf39fd6e51aad88f6f4ce6ab8827279cfffb92266",
        "gas": "0x5db72",
        "value": "0x0",
        "data": "0x608060405234801561001057600080fd5b50600080546001600160a01b031916331790556103f9806100326000396000f3fe608060405234801561001057600080fd5b50600436106100365760003560e01c8063290bb4531461003b578063cc8e239414610050575b600080fd5b61004e61004936600461017b565b61006e565b005b6100586100a7565b604051610065919061022c565b60405180910390f35b600161007a8282610303565b506040517fe0c0c4369656c0c076d23bc27b02824cebc7bef10cb375fd34334edd4974c85490600090a150565b6000546060906001600160a01b031633146100d557604051630f44287360e41b815260040160405180910390fd5b600180546100e29061027a565b80601f016020809104026020016040519081016040528092919081815260200182805461010e9061027a565b801561015b5780601f106101305761010080835404028352916020019161015b565b820191906000526020600020905b81548152906001019060200180831161013e57829003601f168201915b5050505050905090565b634e487b7160e01b600052604160045260246000fd5b60006020828403121561018d57600080fd5b813567ffffffffffffffff808211156101a557600080fd5b818401915084601f8301126101b957600080fd5b8135818111156101cb576101cb610165565b604051601f8201601f19908116603f011681019083821181831017156101f3576101f3610165565b8160405282815287602084870101111561020c57600080fd5b826020860160208301376000928101602001929092525095945050505050565b600060208083528351808285015260005b818110156102595785810183015185820160400152820161023d565b506000604082860101526040601f19601f8301168501019250505092915050565b600181811c9082168061028e57607f821691505b6020821081036102ae57634e487b7160e01b600052602260045260246000fd5b50919050565b601f8211156102fe57600081815260208120601f850160051c810160208610156102db5750805b601f850160051c820191505b818110156102fa578281556001016102e7565b5050505b505050565b815167ffffffffffffffff81111561031d5761031d610165565b6103318161032b845461027a565b846102b4565b602080601f831160018114610366576000841561034e5750858301515b600019600386901b1c1916600185901b1785556102fa565b600085815260208120601f198616915b8281101561039557888601518255948401946001909101908401610376565b50858210156103b35787850151600019600388901b60f8161c191681555b5050505050600190811b0190555056fea26469706673582212200a4160c89cbc8e46d5f9783069a2020e99fd5082bda4e3b89a5a1a8e3673650664736f6c63430008140033",
        "nonce": "0x0",
        "accessList": []
      },
      "additionalContracts": [],
      "isFixedGasLimit": false
    },
    {
      "hash": "0x1e9c7af90c488154d07dbd29fa5915d2cf3ac9f10ee142e22b5f7f6358b87109",
      "transactionType": "CALL",
      "contractName": "PasswordStore",
      "contractAddress": "0x5FbDB2315678afecb367f032d93F642f64180aa3",
      "function": "setPassword(string)",
      "arguments": [
        "myPassword"
      ],
      "transaction": {
        "type": "0x02",
        "from": "0xf39fd6e51aad88f6f4ce6ab8827279cfffb92266",
        "to": "0x5fbdb2315678afecb367f032d93f642f64180aa3",
        "gas": "0x1033d",
        "value": "0x0",
        "data": "0x290bb4530000000000000000000000000000000000000000000000000000000000000020000000000000000000000000000000000000000000000000000000000000000a6d7950617373776f726400000000000000000000000000000000000000000000",
        "nonce": "0x1",
        "accessList": []
      },
      "additionalContracts": [],
      "isFixedGasLimit": false
    }
  ],
  "receipts": [
    {
      "transactionHash": "0xe46761ddf4d2d4bff0c896d1acdc72d6364f653982b2770b55c404e1b2973a71",
      "transactionIndex": "0x0",
      "blockHash": "0x51d0e648071b6c87fd43ef4931aca59e052f1cd8369e806c1f8acb4acc94cd35",
      "blockNumber": "0x37",
      "from": "0xf39Fd6e51aad88F6F4ce6aB8827279cffFb92266",
      "to": null,
      "cumulativeGasUsed": "0x481b0",
      "gasUsed": "0x481b0",
      "contractAddress": "0x5FbDB2315678afecb367f032d93F642f64180aa3",
      "logs": [],
      "status": "0x1",
      "logsBloom": "0x00000000000000000000000000000000000000000000000000000000000000000000000000000000000000000000000000000000000000000000000000000000000000000000000000000000000000000000000000000000000000000000000000000000000000000000000000000000000000000000000000000000000000000000000000000000000000000000000000000000000000000000000000000000000000000000000000000000000000000000000000000000000000000000000000000000000000000000000000000000000000000000000000000000000000000000000000000000000000000000000000000000000000000000000000000000",
      "type": "0x2",
      "effectiveGasPrice": "0xb2dba357"
    },
    {
      "transactionHash": "0x1e9c7af90c488154d07dbd29fa5915d2cf3ac9f10ee142e22b5f7f6358b87109",
      "transactionIndex": "0x1",
      "blockHash": "0x51d0e648071b6c87fd43ef4931aca59e052f1cd8369e806c1f8acb4acc94cd35",
      "blockNumber": "0x37",
      "from": "0xf39Fd6e51aad88F6F4ce6aB8827279cffFb92266",
      "to": "0x5FbDB2315678afecb367f032d93F642f64180aa3",
      "cumulativeGasUsed": "0x532f2",
      "gasUsed": "0xb142",
      "contractAddress": null,
      "logs": [
        {
          "address": "0x5FbDB2315678afecb367f032d93F642f64180aa3",
          "topics": [
            "0xe0c0c4369656c0c076d23bc27b02824cebc7bef10cb375fd34334edd4974c854"
          ],
          "data": "0x",
          "blockHash": "0x51d0e648071b6c87fd43ef4931aca59e052f1cd8369e806c1f8acb4acc94cd35",
          "blockNumber": "0x37",
          "transactionHash": "0x1e9c7af90c488154d07dbd29fa5915d2cf3ac9f10ee142e22b5f7f6358b87109",
          "transactionIndex": "0x1",
          "logIndex": "0x1",
          "transactionLogIndex": "0x0",
          "removed": false
        }
      ],
      "status": "0x1",
      "logsBloom": "0x00000000000000000000000000000000000000400000000000000000000000000000000000000000000000000000000000000000000000000000000000000000000000000000000000000000000000000000000000000000000000000000000000000040000000000000000000000000000000000000000000000000000020000000000000000000000000000000000000000000000000000000000200000000000000000000000000000000000000000000000000000000000000000000000000000040000000000000000000000000000000000000000000000000000000000000000020000000000000000000000000000000000000000000000000000000",
      "type": "0x2",
      "effectiveGasPrice": "0xb2dba357"
    }
  ],
  "libraries": [],
  "pending": [],
  "returns": {
    "0": {
      "internal_type": "contract PasswordStore",
      "value": "0x5FbDB2315678afecb367f032d93F642f64180aa3"
    }
  },
  "timestamp": 1697810772,
  "chain": 31337,
  "multi": false,
  "commit": "a4752cf"
}